S018000041746D656761333238505F626C696E6B2E7372656361
S11300000C9434000C943E000C943E000C943E007E
S11300100C943E000C943E000C943E000C943E0064
S11300200C943E000C943E000C943E000C943E0054
S11300300C943E000C943E000C943E000C943E0044
S11300400C943E000C943E000C943E000C943E0034
S11300500C943E000C943E000C943E000C943E0024
S11300600C943E000C943E0011241FBECFEFD8E048
S1130070DEBFCDBF0E9440000C945B000C940000D6
S11300803D9A459A90E288B1892788B92FEF39E6DD
S113009088E1215030408040E1F700C000003599EC
S11300A0F2CF2FEF39E688E1215030408040E1F76C
S10D00B000C00000E8CFF894FFCF71
S9030000FC
