S018000041746D656761333238505F626C696E6B2E7372656361
S11300000C9434000C943E000C943E000C943E007E
S11300100C943E000C943E000C943E000C943E0064
S11300200C943E000C943E000C943E000C943E0054
S11300300C943E000C943E000C943E000C943E0044
S11300400C943E000C943E000C943E000C943E0034
S11300500C943E000C943E000C943E000C943E0024
S11300600C943E000C943E0011241FBECFEFD8E048
S1130070DEBFCDBF0E9440000C9458000C940000D9
S113008082E084BF3D9A3E9A4698459A20E490E2E5
S113009088B1822788B988B1892788B93FE946E8B9
S11300A081E0315040408040E1F700C00000F0CFD3
S10700B0F894FFCFEE
S9030000FC
